:020000040800F2
:10000000A0040020490100080F110008EB0E0008B1
:100010000D110008B501000895140008000000004B
:1000200000000000000000000000000013110008A4
:10003000B7010008000000001111000815110008A8
:100040006301000863010008630100086301000800
:1000500063010008630100086301000863010008F0
:1000600063010008630100086301000863010008E0
:1000700063010008630100086301000863010008D0
:1000800063010008630100086301000863010008C0
:1000900063010008630100086301000863010008B0
:1000A00063010008630100086301000863010008A0
:1000B0006301000863010008630100086301000890
:1000C0006301000863010008630100086301000880
:1000D0006301000863010008630100086301000870
:1000E0006301000863010008630100086301000860
:1000F0006301000863010008630100086301000850
:10010000630100086301000863010008630100083F
:10011000630100086301000863010008630100082F
:10012000630100086301000863010008630100081F
:10013000DFF810D000F02CF800480047D514000874
:10014000AFF30080A004002006488047064800471F
:10015000FEE7FEE7FEE7FEE7FEE7FEE7FEE7FEE777
:10016000FEE7FEE77511000831010008D2B201E098
:1001700000F8012B491EFBD270470022F6E710B5AC
:1001800013460A4604461946FFF7F0FF204610BD05
:10019000064C074D06E0E06840F0010394E80700D4
:1001A00098471034AC42F6D3FFF7C6FF0815000895
:1001B00028150008FEE7704772B6FEE72DE9F84FF4
:1001C000DFF8C891002409F1040A0AF1040B234660
:1001D0000F270BF1040ED1E00125A54006EA050228
:1001E000AA4276D1DFF8A8C14E68A6EB0C08664596
:1001F0002BD00DDC032E34D005DC36B3012E19D004
:10020000022E2FD11BE0112E16D0122E2AD119E06A
:10021000B8F5881F19D006DCB8F5803F15D0B8F5C1
:10022000801F1FD111E0B8F5001F0ED0B8F5041FD4
:1002300018D10AE0CB6815E0CB681B1D12E0CB6833
:1002400008330FE0CB680C330CE08B682BB1012B2B
:100250004FF0080303D0456104E0042302E0056188
:1002600000E00023FF2A01D8064601E000F1040661
:100270004FEA840501D9A5F12005D6F8008007FAD8
:1002800005FC28EA0C0803FA05F548EA0508C6F853
:1002900000804D68ED0070D53E4DAE6946F0010618
:1002A000AE61AD6924F0030605F0010500953A4DF5
:1002B00006EB050CDCF80850A607360F07FA06F81F
:1002C00025EA0805DFF8D480404503D14FF0000847
:1002D00025E052E0DFF8C880404502D14FF0010828
:1002E0001DE0DFF8C080404502D14FF0020816E063
:1002F000DFF8B480404502D14FF003080FE0DFF88B
:10030000AC80404502D14FF0040808E0DFF8A0803F
:10031000404502D14FF0050801E04FF0060808FA09
:1003200006F848EA0508CCF808804D68D9F800605E
:10033000ED034D4601D5164300E096432E604D680F
:10034000DAF80060AD03554601D5164300E0964348
:100350002E604D68DBF80060ED025D4601D5164366
:1003600000E096432E604D68DEF80060AD027546F1
:1003700001D5164300E096432E60641C0A681646B9
:10038000E2407FF429AFBDE8F88F0000000401408F
:100390000000111000100240000001400008014060
:1003A000000C014000100140001401400018014001
:1003B000001C0140014880687047000000000020D8
:1003C0000248816802781144816070470000002073
:1003D000074810B5016841F010010160032000F0EA
:1003E00067F8002000F006F800F024F8002010BDA7
:1003F0000020024070B50D4D04464FF47A71287804
:10040000B1FBF0F00A490968B1FBF0F000F0C2FA64
:1004100048B9102C07D200222146501E00F028F8BF
:1004200000206C6070BD012070BD00000000002045
:100430000C0000200C4808B5816941F00101816180
:10044000816901F001010091C16941F08051C161F0
:10045000C06900F0805000900448416821F0E061DC
:1004600041F00071416008BD0010024000000140F1
:10047000F0B40E4B1B680C46C3F30223C3F107050F
:10048000042D00D90425191D072901D2002300E0FD
:10049000DB1E012606FA05F1491E214099409E40C7
:1004A000761E16403143F0BC00F0F5BF0CED00E0C5
:1004B000064900F0070208684FF6FF03184040EABB
:1004C0000220034A10430860704700000CED00E072
:1004D0000000FA052DE9F0470F46050061D0434EB4
:1004E000306800F00700B84209D2306820F00700F9
:1004F00038433060306800F00700B84251D12868B6
:100500003B4C810712D5400703D5606840F4E0609A
:1005100060602878000703D5606840F46050606030
:100520006068A96820F0F000084360602878C00780
:1005300028D06868012810D02168022810D08907C7
:1005400000292EDA616821F0030101436160FFF7A1
:1005500031FF804641F288390DE021688903EFE7D9
:100560008901EDE7FFF726FFA0EB0801494502D915
:100570000320BDE8F0876068696800F00C00B0EB0C
:10058000810FEFD1306800F00700B8420BD9306816
:1005900020F0070038433060306800F00700B842B0
:1005A00001D00120E5E72878400705D56068E968B3
:1005B00020F4E060084360602878000706D5606892
:1005C000296920F4605040EAC100606000F018F82A
:1005D0006168084AC1F30311515CC84006490860CC
:1005E00006480068FFF706FF0020C2E7002002402F
:1005F00000100240F81400080C0000200400002045
:1006000013A185B00FC98DE80F0015A0154A006829
:100610000490516801F00C00042804D0082804D08C
:10062000114805B070471148FBE7C1F38343C90384
:100630001DF8030009D5516804AAC1F34041515C7B
:100640000A4A5043B0FBF1F0EBE709494843E8E7B9
:1006500002030405060708090A0B0C0D0E0F101003
:10066000010200000010024000127A00001BB700D7
:1006700000093D002DE9F84F040070D02078C04DEE
:10068000C00749D06868C0F38100012807D06868B6
:10069000C0F38100022809D16868C00306D5286824
:1006A000800339D560680028E7D035E06068B0F590
:1006B000803F0BD010B1B0F5A02F11D0286820F4E6
:1006C00080302860286820F4802002E0286840F408
:1006D00080302860606890B1FFF76CFE06460AE043
:1006E000286840F480202860F0E700BFFFF762FE32
:1006F000801B642873D828688003F7D50CE0FFF7C7
:1007000059FE064605E000BFFFF754FE801B642833
:10071000F0D828688003F7D420789A4E80074FF0ED
:1007200001094FF0000839D5686810F00C0F07D0A8
:100730006868C0F38100022809D16868C00306D444
:100740002868800714D52069012808D110E02069A5
:10075000B0B1C6F80090FFF72DFE074605E00AE1AC
:10076000FFF728FEC01B0228C4D828688007F7D5E9
:100770002868616920F0F80040EAC10028600DE0B7
:10078000C6F80080FFF716FE074604E0FFF712FEEA
:10079000C01B022823D828688007F7D420780007D8
:1007A0002CD57948A169D9B1C0F80090FFF702FEB5
:1007B000074604E0FFF7FEFDC01B02280FD8686A59
:1007C0008007F7D571484FF4FA510068B0FBF1F09B
:1007D000009000BF0098411E0091FAD20EE080E028
:1007E000C0F80080FFF7E6FD074604E0FFF7E2FDF2
:1007F000C01B022875D8686A8007F7D420784007A4
:1008000060D5E8690027C00008D4E86940F080504E
:10081000E861E869012700F0805000905C480168B9
:10082000C90513D40168834641F480710160FFF764
:10083000C1FD824606E000BFFFF7BCFDA0EB0A0049
:1008400064284ED8DBF80000C005F5D5E068012823
:100850000AD008B1052813D0286A20F001002862C8
:10086000286A20F0040002E0286A40F001002862B3
:10087000E06841F2883B98B1FFF79CFD82460BE0AF
:10088000286A40F004002862EEE700BFFFF792FDFF
:10089000A0EB0A0159455AD8286A8007F6D50CE022
:1008A000FFF788FD824605E0FFF784FDA0EB0A0113
:1008B00059454CD8286A8007F6D41FB1E86920F062
:1008C0008050E861E06988B36968C1F38101022959
:1008D00044D00228C6F8608004D0FFF76BFD0446C0
:1008E00038E034E0FFF766FD074604E0FFF762FDFD
:1008F000C01B02282BD828688001F7D4206AB0F5E5
:10090000803F05D16868A16820F400300843686022
:10091000D4E908010843696821F474110843686048
:10092000C6F86090FFF746FD044606E025E000BFEC
:10093000FFF740FD001B022809D828688001F7D581
:100940001BE000BFFFF736FD001B022802D9032081
:10095000BDE8F88F28688001F4D40EE00128F7D0B4
:100960006868226A00F48031914204D1616A00F41F
:100970007010884201D00120EAE70020E8E700007B
:100980000010024000004242800442420C0000205D
:100990000070004010B5401EB0F1807F01D30120EF
:1009A00010BD4FF0E02460610F21601700F073FD6F
:1009B0000020A06107202061002010BD10B590F834
:1009C0003C20012A22D0012280F83C20CA688C6891
:1009D00022F4407222434C6822F4806222430C6865
:1009E00022F4006222430C6922F4805222434C69B3
:1009F00022F400522243C969002322F480420A43B0
:100A000001684A6480F83C30002010BD022010BD0F
:100A100070B590F83C20012A2CD0012480F83C408D
:100A2000022280F83D2003685A689D6822F0700613
:100A30000A6832435A60104B02689A420ED00F4B3C
:100A40009A420BD0B2F1804F08D00D4B9A4205D09C
:100A50000C4B9A4202D00C4B9A4204D1496825F0C3
:100A600080031943916080F83D40002180F83C10DC
:100A7000084670BD022070BD002C014000340140CA
:100A80000004004000080040000C004010B50400C5
:100A900003D094F83D0010B107E0012010BD002004
:100AA00084F83C00204600F01FF8022084F83D0046
:100AB000211D206800F060FB012084F8460084F8C6
:100AC0003E0084F83F0084F8400084F8410084F838
:100AD000420084F8430084F8440084F8450084F818
:100AE0003D00002010BD000008B50C4A01680C480C
:100AF000914207D1816941F400618161806900F40C
:100B0000006009E0074A914207D1816941F4005130
:100B10008161806900F40050009008BD002C014004
:100B2000001002400034014070B5044690F83C00CB
:100B3000012817D0012584F83C50022084F83D009C
:100B40002068826822F0770222F47F42826008687F
:100B5000502830D00DDC20284DD005DC98B310286B
:100B60003BD148E0022070BD302844D0402834D129
:100B700039E0602828D0702806D0B0F5805F2CD0EE
:100B8000B0F5005F29D10AE0CB68D1E901212068E6
:100B900000F045FB2068816841F0770109E0CB68EF
:100BA000D1E90121206800F03AFB2068816841F416
:100BB0008041816011E0CA684968206800F047FC04
:100BC0005021206807E016E0CA684968206800F0F4
:100BD0004FFC6021206800F02CFB84F83D50002081
:100BE00084F83C0070BDCA684968206800F02FFC9A
:100BF00040212068EFE7226801461046EBE700003D
:100C000010B586B000210091019102910391254B0E
:100C100002682549022425489A421FD18A6942F078
:100C200008028A618A6902F0080204928A6942F025
:100C300004028A618969039401F0040104914FF46C
:100C4000C041CDE900146946FFF7B8FA4FF440708F
:100C5000CDE900046946164803941FE0154B9A42FB
:100C60001ED18A6942F008028A618A6902F008028C
:100C700004928A6942F010028A618969039401F042
:100C8000100104910121CDE900146946FFF796FA9D
:100C90008020CDE90004694607480394FFF78EFAE7
:100CA00006B010BD002C014000100240000C0140B5
:100CB00000080140003401400010014070B50446B6
:100CC00090F83C000D4601280AD0012084F83C0031
:100CD00042B1042A18D0082A2AD00C2A4DD139E072
:100CE000022070BD206800F0ADFA2068816941F0F3
:100CF000080181612068816921F004018161206817
:100D000081692A69114311E0206800F0CBFA20685C
:100D1000816941F4006181612068816921F4806109
:100D20008161206881692A6941EA0221816124E0A8
:100D3000206800F0EDFA2068C16941F00801C16146
:100D40002068C16921F00401C1612068C1692A6974
:100D5000114311E0206800F00FFB2068C16941F4E5
:100D60000061C1612068C16921F48061C1612068AE
:100D7000C1692A6941EA0221C161002084F83C006E
:100D800070BD10B5040003D094F83D0010B107E029
:100D9000012010BD002084F83C00204600F01EF821
:100DA000022084F83D00211D206800F0E5F90120B3
:100DB00084F8460084F83E0084F83F0084F8400040
:100DC00084F8410084F8420084F8430084F8440029
:100DD00084F8450084F83D00002010BD70470000F5
:100DE00010B50446022249B104290ED0082913D0B7
:100DF00094F84100012816D0012010BD94F83E005F
:100E00000128F9D184F83E200FE094F83F00012832
:100E1000F2D184F83F2008E094F840000128EBD19B
:100E200084F8402001E084F841200122206800F08D
:100E3000E9F913492068134A884201D0904203D14E
:100E4000436C43F400434364206888420DD09042D1
:100E50000BD0B0F1804F08D00B49884205D00B4928
:100E6000884202D00A49884204D1816801F0070112
:100E7000062903D0016841F001010160002010BD86
:100E8000002C0140003401400004004000080040F4
:100E9000000C004070B5044690F83C00012812D0C8
:100EA000012584F83C50022084F83D00204600F0E3
:100EB0008BFA01004FF0000007D084F83D5084F811
:100EC0003C00012070BD022070BD2168CA6822F07C
:100ED0004002CA602168CA6822F48042CA6084F86D
:100EE0003D5084F83C00002070BDFEE7114808B575
:100EF000816941F020018161816901F02001009147
:100F0000816941F008018161816901F00801009166
:100F1000816941F010018161816901F01001009146
:100F2000816941F004018161806900F00400009052
:100F300008BD00000010024010B596B000240F94C8
:100F400010941194129413941C2168461494FFF782
:100F500014F9202107A8FFF710F930482E49C0E9FD
:100F6000001440F2E731C0E9024104614461846148
:100F7000FFF78CFD08B1FFF71FF94FF480500F9079
:100F80000FA92648FFF7D0FD08B1FFF715F9234850
:100F9000FFF7F7FE08B1FFF70FF94020CDE9130482
:100FA00013A91E48FFF734FD08B1FFF705F97020BB
:100FB00000906420CDE90104039404940594002278
:100FC000694616480694FFF779FE08B1FFF7F4F872
:100FD000602000904FF4FA700190042269460F4897
:100FE000FFF76CFE08B1FFF7E7F807941E2008949E
:100FF000CDE909404FF40050CDE90B4007A907485F
:101000000E94FFF7DBFC08B1FFF7D6F80348FFF7B3
:10101000F7FD16B010BD0000002C014010000020AC
:1010200010B59AB0002414941594169414210FA8A6
:101030001794FFF7A2F818941C2108A81994FFF739
:101040009CF820216846FFF798F82F482D49C0E901
:10105000001440F2E731C0E9024104614461846157
:10106000FFF714FD08B1FFF7A7F84FF48050149074
:1010700014A92548FFF758FD08B1FFF79DF822484D
:10108000FFF77FFE08B1FFF797F80620CDE90F04C0
:101090000FA91D48FFF7FEFE08B1FFF78DF84020AD
:1010A00018908020199018A91748FFF7B1FC08B1D3
:1010B000FFF782F8602008904FF4FA70CDE9090438
:1010C0000B940C940D94042208A90F480E94FFF77A
:1010D000F5FD08B1FFF770F81E20CDE9024000943D
:1010E0004FF40050CDE90440019469460648079446
:1010F000FFF764FC08B1FFF75FF80348FFF780FDD6
:101100001AB010BD0034014058000020FEE7FEE791
:1011100070477047FFF754B930B58FB02821684643
:10112000FFF72BF814210AA8FFF727F8012108047C
:10113000CDE900100024029402250491CDE9075066
:10114000000109906846FFF795FA08B172B6FEE70C
:101150000F20CDE90A054FF48060CDE90C40022153
:101160000AA80E94FFF7B6F9002801D072B6FEE780
:101170000FB030BD70470000F0B502681C4B1D4D2C
:101180001D4E1E4F1E4C4FF0804C984209D0A0427D
:1011900007D0604505D0A84203D0B04201D0B84284
:1011A00004D122F0700E4A6842EA0E02984209D039
:1011B000A04207D0604505D0A84203D0B04201D07C
:1011C000B84203D122F44075CA682A434D6922F01F
:1011D00080022A4302608A68C2620A688262984278
:1011E00001D0A04201D10969016301214161F0BD33
:1011F000002C01400004004000080040000C0040AA
:101200000034014010B501F01F030121046A994028
:101210008C430462016A9A401143016210BD10B50B
:10122000846842EA032224F47F440A432243826012
:1012300010BD826822F070020A4342F0070181600B
:1012400070470000F0B5026A22F001020262036AF0
:1012500042688469124E24F073050C682C4323F015
:1012600002058B682B430D4DA84201D0B04205D139
:1012700023F00807CB683B4323F00403A84201D0C6
:10128000B04205D14D6922F4407215438A692A4360
:1012900042608461496841630362F0BD002C0140F3
:1012A00000340140F0B5026A22F010020262026AC4
:1012B000436884690D6824F4E64444EA05248D6893
:1012C00022F0200242EA05120F4D104EA84201D032
:1012D000B04206D1CF6822F0800242EA071222F023
:1012E0004002A84201D0B04207D14D6923F44063C7
:1012F00043EA85038D6943EA850343608461496855
:1013000081630262F0BD0000002C01400034014006
:10131000F0B5026A22F480720262026A4368C4690C
:1013200022F4007224F073050C68124E2C438D6871
:1013300042EA05220E4DA84201D0B04206D1CF6844
:1013400022F4006242EA072222F48062A84201D01D
:10135000B04207D14D6923F4405343EA05138D6928
:1013600043EA05134360C4614968C1630262F0BD8A
:10137000002C01400034014030B5026A22F4805252
:101380000262046A4268C3690D6823F4E64343EAD3
:1013900005238D6824F4005444EA0534084DA8421E
:1013A00002D0084DA84204D14D6922F4804242EA9D
:1013B00085124260C36149680164046230BD000067
:1013C000002C01400034014010B503689A6822F0F7
:1013D00070044A68224322F007040A6822439A6094
:1013E0004A6812F00F0F30D11211082A2DD2DFE80F
:1013F00002F02C2C2C2C0B2127040B69D1E90221A3
:101400000068FFF70CFF20E00A68052A10D0026888
:10141000136A146A24F00104146202689469096969
:1014200024F0F00444EA01119161006803620CE0C9
:10143000012010BD0A698968006800F008F804E01E
:101440000A698968006800F013F8002010BD10B523
:10145000036A046A24F001040462846924F0F0043D
:1014600044EA021423F00A020A438461026210BDB6
:1014700010B5036A23F0100303628369046A23F43E
:10148000704343EA023224F0A00343EA011182616F
:10149000016210BDFEE70907090E002804DB00F118
:1014A000E02080F80014704700F00F0000F1E02009
:1014B00080F8141D704702E008C8121F08C1002AF6
:1014C000FAD170477047002001E001C1121F002AC5
:1014D000FBD17047FEF77CFFFFF71EFEFFF706FD0E
:1014E000FFF72AFDFFF79CFD04210248FFF778FC77
:1014F000FEE70000100000200000000000000000D7
:10150000010203040607080928150008000000204E
:1015100010000000B6140008381500081000002064
:1015200090040000C6140008010000001000000034
:08153000000000000024F4009B
:0400000508000131BD
:00000001FF
